:020000040800F2
:1000000000000220A5160008F515000801160008DA
:10001000071600080D16000813160008000000005F
:100020000000000000000000000000001916000899
:100030002516000800000000311600083D160008D3
:10004000F5160008F5160008F5160008F516000864
:10005000F5160008F5160008F5160008F516000854
:10006000F5160008F5160008F5160008F516000844
:10007000F5160008F5160008F5160008F516000834
:10008000F5160008F5160008F5160008F516000824
:10009000F5160008F5160008F5160008F516000814
:1000A000F5160008F5160008F5160008F516000804
:1000B000F5160008F5160008F5160008F5160008F4
:1000C000F5160008F5160008F5160008F5160008E4
:1000D000F5160008F5160008F5160008F5160008D4
:1000E000F5160008F5160008F5160008F5160008C4
:1000F000F5160008F5160008F5160008F5160008B4
:10010000F5160008F5160008F5160008F5160008A3
:10011000F5160008F5160008F5160008F516000893
:10012000F5160008F5160008F5160008F516000883
:10013000F5160008F5160008F5160008F516000873
:10014000F5160008F5160008F5160008F516000863
:10015000F5160008F5160008F5160008F516000853
:10016000F5160008F5160008F5160008F516000843
:10017000F5160008F5160008F51600080000000046
:08018000F5160008F516000851
:1001880010B5054C237833B9044B13B10448AFF3C9
:1001980000800123237010BD0C0000200000000027
:1001A8005017000808B5034B1BB103490348AFF3C8
:1001B800008008BD00000000100000205017000853
:1001C80053B94AB9002908BF00281CBF4FF0FF31B6
:1001D8004FF0FF3000F072B9ADF1080C6DE904CEB4
:1001E80000F006F8DDF804E0DDE9022304B070470A
:1001F8002DE9F047089E04468846002B4BD18A42D9
:10020800154667D9B2FA82F24AB1C2F1200701FA5B
:1002180002F320FA07F7954047EA030894404FEAAB
:10022800154E230CB8FBFEF71FFA85FC0EFB17884A
:1002380043EA084307FB0CF1994209D9EB1807F187
:10024800FF3080F01B81994240F21881023F2B4415
:100258005B1AA4B2B3FBFEF00EFB103344EA03446E
:1002680000FB0CFCA44509D92C1900F1FF3380F0E0
:100278000781A44540F2048102382C4440EA074033
:10028800A4EB0C0400271EB1D4400023C6E90043A8
:100298003946BDE8F0878B4209D9002E00F0EB8083
:1002A8000027C6E9000138463946BDE8F087B3FAA9
:1002B80083F7002F47D18B4202D3824200F2FA80A3
:1002C800841A61EB030301209846002EE0D0C6E9AA
:1002D8000048DDE702B9FFDEB2FA82F2002A40F0F8
:1002E8008F80491B4FEA154E1FFA85F80127B1FB8D
:1002F800FEFC230C0EFB1C1143EA014308FB0CF126
:10030800994207D9EB180CF1FF3002D2994200F25A
:10031800CD808446591AA3B2B1FBFEF00EFB10142F
:1003280043EA044408FB00F8A04507D92C1900F15A
:10033800FF3302D2A04500F2B6801846A4EB0804A9
:1003480040EA0C409FE7C7F1200CBB4022FA0CFEA4
:100358004EEA030E01FA07F420FA0CF521FA0CF321
:100368004FEA1E482543B3FBF8F92C0C08FB193358
:100378001FFA8EFA44EA034309FB0AF49C4202FA84
:1003880007F200FA07F10BD91EEB030309F1FF305E
:1003980080F087809C4240F28480A9F1020973446E
:1003A8001B1BADB2B3FBF8F008FB103345EA03445E
:1003B80000FB0AFAA24508D91EEB040400F1FF333A
:1003C8006BD2A24569D90238744440EA0940A0FBBF
:1003D8000289A4EB0A044C45C2464B4654D351D07B
:1003E800002E69D0B1EB0A0564EB030404FA0CFC97
:1003F800FD40FC404CEA0505C6E90054002747E7E4
:10040800C2F1200320FA03F7954001FA02F021FA1D
:1004180003F34FEA154E3843010CB3FBFEF71FFAFE
:1004280085F80EFB173341EA034107FB08F38B42BB
:1004380004FA02F407D9691807F1FF3C2FD28B425E
:100448002DD9023F2944CB1A81B2B3FBFEF00EFB33
:10045800103341EA034100FB08F38B4207D96918BE
:1004680000F1FF3C17D28B4215D902382944C91A2A
:1004780040EA07473BE73746304609E70746E7E6DD
:100488001846FBE64145ABD2B8EB020A69EB0E020F
:1004980001381346A4E76046E9E7184695E767463A
:1004A800D1E781467CE702382C4447E7ACF1020CDF
:1004B8002B442FE7384608E73746E9E6704700BF80
:1004C80080B500AF0E4B1B680D4A43F400731360F0
:1004D8000B4B1B680A4A43F480631360084B1B6884
:1004E800074A43F480731360032000F029F90020C1
:1004F80000F008F801F054F80023184680BD00BF4A
:10050800003C024080B582B000AF7860124B1A6898
:10051800124B1B7819464FF47A73B3FBF1F3B2FB15
:10052800F3F3184600F033F90346002B01D00123FA
:100538000EE07B680F2B0AD8002279684FF0FF3055
:1005480000F009F9064A7B681360002300E00123E4
:1005580018460837BD4680BD08000020040000206A
:100568000000002080B400AF054B1B781A46054BED
:100578001B681344034A136000BFBD4680BC704724
:10058800040000202800002080B400AF024B1B6844
:100598001846BD4680BC70472800002080B584B04E
:1005A80000AF7860FFF7F0FFB8607B68FB60FB681E
:1005B800B3F1FF3F05D0094B1B781A46FB6813447B
:1005C800FB6000BFFFF7E0FF0246BB68D31AFA687A
:1005D8009A42F7D800BF1037BD4680BD04000020FE
:1005E80080B485B000AF78607B6803F00703FB60D8
:1005F8000C4BDB68BB60BA684FF6FF031340BB6067
:10060800FB681A02BB68134343F0BF6343F400332B
:10061800BB60044ABB68D36000BF1437BD4680BCCA
:10062800704700BF00ED00E080B400AF044BDB680A
:100638001B0A03F007031846BD4680BC704700BF7D
:1006480000ED00E080B483B000AF03463960FB7171
:1006580097F90730002B0BDA3B68DAB20C49FB79C3
:1006680003F00F03043B1201D2B20B441A7609E0DF
:100678003B68DAB2074997F907301201D2B20B4446
:1006880083F8002300BF0C37BD4680BC704700BF0D
:1006980000ED00E000E100E080B489B000AFF86050
:1006A800B9607A60FB6803F00703FB61FB69C3F17B
:1006B8000703042B28BF0423BB61FB690433062B03
:1006C80002D9FB69033B00E000237B614FF0FF3256
:1006D800BB6902FA03F3DA43BB681A407B699A40A4
:1006E8004FF0FF317B6901FA03F3D9437B680B4074
:1006F800134318462437BD4680BC704780B582B086
:1007080000AF78607B68013BB3F1807F01D30123A0
:100718000FE00A4A7B68013B53600F214FF0FF301E
:10072800FFF790FF054B00229A60044B07221A60DE
:10073800002318460837BD4680BD00BF10E000E022
:1007480080B582B000AF78607868FFF749FF00BFD6
:100758000837BD4680BD80B586B000AF0346B96096
:100768007A60FB7300237B61FFF75EFF78617A682C
:10077800B9687869FFF790FF024697F90F3011467C
:100788001846FFF75FFF00BF1837BD4680BD80B52C
:1007980082B000AF78607868FFF7B0FF034618466C
:1007A8000837BD4680BD000080B489B000AF7860CE
:1007B800396000237B6100233B610023BB61002378
:1007C800FB616BE10122FB6902FA03F37B613B6881
:1007D8001B687A6913403B613A697B699A4240F029
:1007E8005A813B685B68022B03D03B685B68122B1D
:1007F80023D1FB69DA087B68083253F82230BB61E1
:10080800FB6903F007039B000F2202FA03F3DB43A3
:10081800BA691340BB613B681A69FB6903F00703B7
:100828009B0002FA03F3BA691343BB61FB69DA0858
:100838007B680832B96943F822107B681B68BB6182
:10084800FB695B00032202FA03F3DB43BA69134036
:10085800BB613B685B6803F00302FB695B0002FA5B
:1008680003F3BA691343BB617B68BA691A603B68D2
:100878005B68012B0BD03B685B68022B07D03B6899
:100888005B68112B03D03B685B68122B30D17B6807
:100898009B68BB61FB695B00032202FA03F3DB433D
:1008A800BA691340BB613B68DA68FB695B0002FA0E
:1008B80003F3BA691343BB617B68BA699A607B68C2
:1008C8005B68BB610122FB6902FA03F3DB43BA6987
:1008D8001340BB613B685B681B0903F00102FB69BD
:1008E80002FA03F3BA691343BB617B68BA695A60B9
:1008F8007B68DB68BB61FB695B00032202FA03F3D8
:10090800DB43BA691340BB613B689A68FB695B00CB
:1009180002FA03F3BA691343BB617B68BA69DA6008
:100928003B685B6803F08053002B00F0B480002321
:10093800FB605F4B5B6C5E4A43F4804353645C4BE3
:100948005B6C03F48043FB60FB685A4AFB699B08B5
:10095800023352F82330BB61FB6903F003039B00A9
:100968000F2202FA03F3DB43BA691340BB617B68C9
:10097800514A93422BD07B68504A934225D07B68DA
:100988004F4A93421FD07B684E4A934219D07B68E6
:100998004D4A934213D07B684C4A93420DD07B68F2
:1009A8004B4A934207D07B684A4A934201D10723B6
:1009B8000EE008230CE006230AE0052308E00423E0
:1009C80006E0032304E0022302E0012300E0002301
:1009D800FA6902F0030292009340BA691343BB61BB
:1009E8003449FB699B080233BA6941F823203A4B22
:1009F8001B68BB613B69DB43BA691340BB613B6859
:100A08005B6803F48033002B03D0BA693B69134356
:100A1800BB61314ABB6913602F4B5B68BB613B69A3
:100A2800DB43BA691340BB613B685B6803F400337E
:100A3800002B03D0BA693B691343BB61264ABB69E3
:100A48005360254B9B68BB613B69DB43BA69134024
:100A5800BB613B685B6803F48013002B03D0BA6961
:100A68003B691343BB611C4ABB6993601A4BDB6843
:100A7800BB613B69DB43BA691340BB613B685B6898
:100A880003F40013002B03D0BA693B691343BB611D
:100A9800114ABB69D360FB690133FB61FB690F2B0A
:100AA8007FF690AE00BF2437BD4680BC704700BFBC
:100AB80000380240003801400000024000040240B3
:100AC80000080240000C02400010024000140240DE
:100AD80000180240001C0240003C014080B483B072
:100AE80000AF78600B467B8013467B707B78002BC9
:100AF80003D07A887B689A6103E07B881A047B6854
:100B08009A6100BF0C37BD4680BC704780B586B07F
:100B180000AF78607B68002B01D101232DE27B6850
:100B28001B6803F00103002B75D0A34B9B6803F0EF
:100B38000C03042B0CD0A04B9B6803F00C03082B70
:100B480012D19D4B5B6803F48003B3F5800F0BD182
:100B5800994B1B6803F40033002B5BD07B685B6800
:100B6800002B57D1012308E27B685B68B3F5803F0F
:100B780006D1914B1B68904A43F4803313601DE003
:100B88007B685B68B3F5A02F0CD18B4B1B688A4A36
:100B980043F480231360884B1B68874A43F48033EF
:100BA80013600BE0844B1B68834A23F48033136083
:100BB800814B1B68804A23F4802313607B685B6841
:100BC800002B13D0FFF7E0FC386108E0FFF7DCFCEE
:100BD80002463B69D31A642B01D90323CDE1764B36
:100BE8001B6803F40033002BF0D014E0FFF7CCFCB3
:100BF800386108E0FFF7C8FC02463B69D31A642B4A
:100C080001D90323B9E16C4B1B6803F40033002BB3
:100C1800F0D100E000BF7B681B6803F00203002BE3
:100C280063D0654B9B6803F00C03002B0BD0624B21
:100C38009B6803F00C03082B1CD15F4B5B6803F423
:100C48008003002B16D15C4B1B6803F00203002BBA
:100C580005D07B68DB68012B01D001238DE1564B61
:100C68001B6823F0F8027B681B69DB0052491343B9
:100C78000B603AE07B68DB68002B20D04F4B0122E9
:100C88001A60FFF781FC386108E0FFF77DFC024637
:100C98003B69D31A022B01D903236EE1464B1B682B
:100CA80003F00203002BF0D0434B1B6823F0F8023B
:100CB8007B681B69DB00404913430B6015E03F4B21
:100CC80000221A60FFF760FC386108E0FFF75CFC5F
:100CD80002463B69D31A022B01D903234DE1364B57
:100CE8001B6803F00203002BF0D17B681B6803F03C
:100CF8000803002B30D07B685B69002B16D0304B83
:100D080001221A60FFF740FC386108E0FFF73CFC5D
:100D180002463B69D31A022B01D903232DE1264B46
:100D28005B6F03F00203002BF0D015E0244B002288
:100D38001A60FFF729FC386108E0FFF725FC024636
:100D48003B69D31A022B01D9032316E11A4B5B6FB7
:100D580003F00203002BF0D17B681B6803F0040347
:100D6800002B00F0A0800023FB75134B1B6C03F0D5
:100D78008053002B0FD10023FB600F4B1B6C0E4AD6
:100D880043F0805313640C4B1B6C03F08053FB60DF
:100D9800FB680123FB750B4B1B6803F48073002B66
:100DA80021D1084B1B68074A43F480731360FFF78F
:100DB800EBFB386111E000BF0038024000004742F9
:100DC800800E474200700040FFF7DEFB02463B6999
:100DD800D31A022B01D90323CFE06A4B1B6803F413
:100DE8008073002BF0D07B689B68012B06D1664B83
:100DF8001B6F654A43F0010313671CE07B689B681F
:100E0800052B0CD1604B1B6F5F4A43F0040313673B
:100E18005D4B1B6F5C4A43F0010313670BE05A4BB1
:100E28001B6F594A23F001031367574B1B6F564A30
:100E380023F0040313677B689B68002B15D0FFF72A
:100E4800A3FB38610AE0FFF79FFB02463B69D31A10
:100E580041F28832934201D903238EE04A4B1B6F3B
:100E680003F00203002BEED014E0FFF78DFB38618E
:100E78000AE0FFF789FB02463B69D31A41F2883240
:100E8800934201D9032378E03F4B1B6F03F0020321
:100E9800002BEED1FB7D012B05D13B4B1B6C3A4A55
:100EA80023F0805313647B689B69002B64D0364B16
:100EB8009B6803F00C03082B5CD07B689B69022BB2
:100EC80041D1324B00221A60FFF75EFB386108E01F
:100ED800FFF75AFB02463B69D31A022B01D90323B9
:100EE8004BE0294B1B6803F00073002BF0D17B68A3
:100EF800DA697B681B6A1A437B685B6A9B011A4341
:100F08007B689B6A5B08013B1B041A437B68DB6AAE
:100F18001B061D4913434B601C4B01221A60FFF747
:100F280033FB386108E0FFF72FFB02463B69D31A11
:100F3800022B01D9032320E0134B1B6803F0007335
:100F4800002BF0D018E0114B00221A60FFF71CFBB1
:100F5800386108E0FFF718FB02463B69D31A022BF9
:100F680001D9032309E0084B1B6803F00073002B29
:100F7800F0D101E0012300E0002318461837BD46F0
:100F880080BD00BF0070004000380240600047424A
:100F980080B584B000AF786039607B68002B01D1E0
:100FA8000123CAE0674B1B6803F00F033A689A42B3
:100FB8000CD9644B3A68D2B21A70624B1B6803F0C2
:100FC8000F033A689A4201D00123B6E07B681B6898
:100FD80003F00203002B20D07B681B6803F0040396
:100FE800002B05D0584B9B68574A43F4E053936055
:100FF8007B681B6803F00803002B05D0524B9B68E5
:10100800514A43F4604393604F4B9B6823F0F002CE
:101018007B689B684C4913438B607B681B6803F0B3
:101028000103002B44D07B685B68012B07D1464B3A
:101038001B6803F40033002B19D101237DE07B6882
:101048005B68022B03D07B685B68032B07D13E4BA0
:101058001B6803F00073002B09D101236DE03A4BA4
:101068001B6803F00203002B01D1012365E0364B16
:101078009B6823F003027B685B68334913438B60EA
:10108800FFF782FAF8600AE0FFF77EFA0246FB688B
:10109800D31A41F28832934201D903234DE02A4BF7
:1010A8009B6803F00C027B685B689B009A42EBD15B
:1010B800244B1B6803F00F033A689A420CD2214B69
:1010C8003A68D2B21A701F4B1B6803F00F033A68D4
:1010D8009A4201D0012330E07B681B6803F00403C7
:1010E800002B08D0184B9B6823F4E0527B68DB6820
:1010F800154913438B607B681B6803F00803002BBA
:1011080009D0114B9B6823F460427B681B69DB00A4
:101118000D4913438B6000F01DF801460A4B9B688C
:101128001B0903F00F03094AD35C21FA03F3084AA9
:1011380013600020FFF7E6F9002318461037BD4674
:1011480080BD00BF003C024000380240681700081C
:1011580008000020F0B585B000AF00237B600023B5
:10116800FB6000233B600023BB60634B9B6803F07C
:101178000C03042B07D0082B08D0002B40F0B480B8
:101188005E4BBB60B3E05E4BBB60B0E05A4B5B6844
:1011980003F03F037B60584B5B6803F48003002B2C
:1011A8004AD0554B5B689B094FF0000440F2FF1191
:1011B8004FF0000203EA010504EA02062946324616
:1011C8004FF000034FF00004540144EAD1644B018E
:1011D80019462246491B62EB06024FF000034FF006
:1011E8000004940144EA91648B015B1A64EB0204E5
:1011F8004FF000014FF00002E20042EA5372D900BA
:101208000B4614465B1944EB06044FF000014FF0FF
:101218000002620242EAD35259020B4614461846AB
:1012280021467B684FF000041A462346FEF7C8FFA4
:1012380003460C46FB6049E02F4B5B689B094FF067
:10124800000440F2FF114FF0000203EA010504EA2E
:101258000206294632464FF000034FF000045401BD
:1012680044EAD1644B0119462246491B62EB060247
:101278004FF000034FF00004940144EA91648B019D
:101288005B1A64EB02044FF000014FF00002E20029
:1012980042EA5372D9000B4614465B1944EB060424
:1012A8004FF000014FF00002A20242EA9352990265
:1012B8000B461446184621467B684FF000041A4630
:1012C8002346FEF77DFF03460C46FB600A4B5B682E
:1012D8001B0C03F0030301335B003B60FA683B68B7
:1012E800B2FBF3F3BB6002E0044BBB6000BFBB681A
:1012F80018461437BD46F0BD003802400024F400FB
:1013080000127A0080B582B000AFFFF7D9F800F07C
:1013180071F800F0D9F800237B605EE0012201211A
:101328003248FFF7DBFB002202213048FFF7D6FBEB
:10133800002210212D48FFF7D1FB002201212C4863
:10134800FFF7CCFB0220FFF729F9002201212748EB
:10135800FFF7C4FB012202212448FFF7BFFB00224C
:1013680010212248FFF7BAFB002201212048FFF78D
:10137800B5FB0220FFF712F9002201211B48FFF7F5
:10138800ADFB002202211948FFF7A8FB012210211A
:101398001648FFF7A3FB002201211548FFF79EFB23
:1013A8000220FFF7FBF8002201211048FFF796FB07
:1013B800002202210D48FFF791FB002210210B4863
:1013C800FFF78CFB012201210948FFF787FB022068
:1013D800FFF7E4F87B6801337B607B68B3F5007F37
:1013E8009CDB4FF47A70FFF7D9F894E700000240CD
:1013F8000004024080B594B000AF07F1200330220A
:101408000021184600F098F907F10C0300221A6031
:101418005A609A60DA601A610023BB60284B1B6C23
:10142800274A43F080531364254B1B6C03F0805309
:10143800BB60BB6800237B60224B1B68214A43F4D6
:10144800804313601F4B1B6803F480437B607B68F9
:1014580001233B624FF480337B620223BB634FF46A
:101468008003FB6304233B64A8237B640223BB64DF
:101478000423FB6407F120031846FFF747FB0346E4
:10148800002B01D000F086F80F23FB6002233B619C
:1014980000237B614FF4A053BB614FF48053FB6181
:1014A80007F10C0305211846FFF772FD0346002BD0
:1014B80001D000F06FF800BF5037BD4680BD00BFB7
:1014C800003802400070004080B588B000AF07F1D6
:1014D8000C0300221A605A609A60DA601A610023CD
:1014E800BB60294B1B6B284A43F080031363264BD0
:1014F8001B6B03F08003BB60BB6800237B60224B3F
:101508001B6B214A43F0010313631F4B1B6B03F052
:1015180001037B607B6800233B601B4B1B6B1A4AF3
:1015280043F002031363184B1B6B03F002033B6089
:101538003B68002213211548FFF7D0FA0022012149
:101548001348FFF7CBFA1323FB6001233B61002309
:101558007B610023BB6107F10C0319460B48FFF7B9
:1015680023F90123FB6001233B6100237B610023F6
:10157800BB6107F10C0319460548FFF715F900BFD1
:101588002037BD4680BD00BF003802400000024041
:101598000004024080B400AF00BFBD4680BC704765
:1015A80080B483B000AF00237B600F4B5B6C0E4AA6
:1015B80043F4804353640C4B5B6C03F480437B60BF
:1015C8007B6800233B60084B1B6C074A43F0805341
:1015D8001364054B1B6C03F080533B603B6800BFF2
:1015E8000C37BD4680BC70470038024080B400AF5D
:1015F80000BFBD4680BC704780B400AFFEE780B432
:1016080000AFFEE780B400AFFEE780B400AFFEE7AE
:1016180080B400AF00BFBD4680BC704780B400AF47
:1016280000BFBD4680BC704780B400AF00BFBD4658
:1016380080BC704780B500AFFEF794FF00BF80BD47
:1016480080B400AF124B1B68114A43F001031360CA
:101658000F4B00229A600E4B1B680D4A23F08473CF
:1016680023F4803313600A4B0A4A5A60084B1B68FC
:10167800074A23F480231360054B0022DA60064BE7
:101688004FF000629A6000BFBD4680BC704700BF43
:10169800003802401030002400ED00E0DFF834D0BC
:1016A800002103E00C4B5B58435004310B480C4BB2
:1016B80042189A42F6D30B4A02E0002342F8043B50
:1016C800094B9A42F9D3FFF7BBFF00F011F8FFF777
:1016D80019FE70470000022088170008000000204B
:1016E8000C0000200C0000202C000020FEE7000069
:1016F80070B50D4E0D4CA41BA4100025A54209D1B0
:101708000B4E0C4C00F020F8A41BA4100025A54299
:1017180005D170BD56F8253098470135EEE756F8E3
:10172800253098470135F2E7801700088017000830
:10173800801700088417000802440346934200D12A
:10174800704703F8011BF9E7F8B500BFF8BC08BCFF
:101758009E467047F8B500BFF8BC08BC9E46704767
:101768000000000000000000010203040607080949
:0817780080EAFF7F0100000080
:04178000AD010008AF
:0417840089010008CF
:0C17880010000000010000000024F4002C
:04000005080016A534
:00000001FF
